{
  "_format": "hh3-artifact-1",
  "contractName": "Donation",
  "sourceName": "contracts/Donation.sol",
  "abi": [
    {
      "inputs": [],
      "stateMutability": "nonpayable",
      "type": "constructor"
    },
    {
      "inputs": [],
      "name": "InvalidWithdrawalAmount",
      "type": "error"
    },
    {
      "inputs": [],
      "name": "NotOwner",
      "type": "error"
    },
    {
      "inputs": [],
      "name": "ReentrancyGuard",
      "type": "error"
    },
    {
      "inputs": [],
      "name": "TransferFailed",
      "type": "error"
    },
    {
      "inputs": [],
      "name": "ZeroDonation",
      "type": "error"
    },
    {
      "anonymous": false,
      "inputs": [
        {
          "indexed": true,
          "internalType": "address",
          "name": "sender",
          "type": "address"
        },
        {
          "indexed": false,
          "internalType": "uint256",
          "name": "amount",
          "type": "uint256"
        }
      ],
      "name": "DirectTransferReceived",
      "type": "event"
    },
    {
      "anonymous": false,
      "inputs": [
        {
          "indexed": true,
          "internalType": "address",
          "name": "donor",
          "type": "address"
        },
        {
          "indexed": false,
          "internalType": "uint256",
          "name": "amount",
          "type": "uint256"
        },
        {
          "indexed": false,
          "internalType": "uint256",
          "name": "newTotal",
          "type": "uint256"
        }
      ],
      "name": "DonationReceived",
      "type": "event"
    },
    {
      "anonymous": false,
      "inputs": [
        {
          "indexed": true,
          "internalType": "address",
          "name": "owner",
          "type": "address"
        },
        {
          "indexed": false,
          "internalType": "uint256",
          "name": "amount",
          "type": "uint256"
        },
        {
          "indexed": false,
          "internalType": "uint256",
          "name": "remainingBalance",
          "type": "uint256"
        }
      ],
      "name": "FundsWithdrawn",
      "type": "event"
    },
    {
      "stateMutability": "payable",
      "type": "fallback"
    },
    {
      "inputs": [],
      "name": "donate",
      "outputs": [],
      "stateMutability": "payable",
      "type": "function"
    },
    {
      "inputs": [
        {
          "internalType": "address",
          "name": "",
          "type": "address"
        }
      ],
      "name": "donorContributions",
      "outputs": [
        {
          "internalType": "uint256",
          "name": "",
          "type": "uint256"
        }
      ],
      "stateMutability": "view",
      "type": "function"
    },
    {
      "inputs": [
        {
          "internalType": "uint256",
          "name": "",
          "type": "uint256"
        }
      ],
      "name": "donors",
      "outputs": [
        {
          "internalType": "address",
          "name": "",
          "type": "address"
        }
      ],
      "stateMutability": "view",
      "type": "function"
    },
    {
      "inputs": [],
      "name": "getBalance",
      "outputs": [
        {
          "internalType": "uint256",
          "name": "",
          "type": "uint256"
        }
      ],
      "stateMutability": "view",
      "type": "function"
    },
    {
      "inputs": [
        {
          "internalType": "uint256",
          "name": "index",
          "type": "uint256"
        }
      ],
      "name": "getDonorByIndex",
      "outputs": [
        {
          "internalType": "address",
          "name": "",
          "type": "address"
        }
      ],
      "stateMutability": "view",
      "type": "function"
    },
    {
      "inputs": [],
      "name": "getDonorCount",
      "outputs": [
        {
          "internalType": "uint256",
          "name": "",
          "type": "uint256"
        }
      ],
      "stateMutability": "view",
      "type": "function"
    },
    {
      "inputs": [],
      "name": "getStats",
      "outputs": [
        {
          "internalType": "uint256",
          "name": "totalBalance",
          "type": "uint256"
        },
        {
          "internalType": "uint256",
          "name": "totalDonations",
          "type": "uint256"
        },
        {
          "internalType": "uint256",
          "name": "totalWithdrawals",
          "type": "uint256"
        },
        {
          "internalType": "uint256",
          "name": "uniqueDonors",
          "type": "uint256"
        }
      ],
      "stateMutability": "view",
      "type": "function"
    },
    {
      "inputs": [
        {
          "internalType": "address",
          "name": "",
          "type": "address"
        }
      ],
      "name": "hasDonated",
      "outputs": [
        {
          "internalType": "bool",
          "name": "",
          "type": "bool"
        }
      ],
      "stateMutability": "view",
      "type": "function"
    },
    {
      "inputs": [],
      "name": "owner",
      "outputs": [
        {
          "internalType": "address",
          "name": "",
          "type": "address"
        }
      ],
      "stateMutability": "view",
      "type": "function"
    },
    {
      "inputs": [],
      "name": "totalDonated",
      "outputs": [
        {
          "internalType": "uint256",
          "name": "",
          "type": "uint256"
        }
      ],
      "stateMutability": "view",
      "type": "function"
    },
    {
      "inputs": [],
      "name": "totalWithdrawn",
      "outputs": [
        {
          "internalType": "uint256",
          "name": "",
          "type": "uint256"
        }
      ],
      "stateMutability": "view",
      "type": "function"
    },
    {
      "inputs": [
        {
          "internalType": "uint256",
          "name": "amount",
          "type": "uint256"
        }
      ],
      "name": "withdraw",
      "outputs": [],
      "stateMutability": "nonpayable",
      "type": "function"
    },
    {
      "inputs": [],
      "name": "withdrawAll",
      "outputs": [],
      "stateMutability": "nonpayable",
      "type": "function"
    },
    {
      "stateMutability": "payable",
      "type": "receive"
    }
  ],
  "bytecode": "0x60a060405234801561000f575f5ffd5b5033608052600160055560805161099061005b5f395f818161032d015281816103c80152818161047f0152818161052401528181610623015281816106d0015261076701526109905ff3fe6080604052600436106100c4575f3560e01c8063570752571161007e5780638da5cb5b116100585780638da5cb5b1461031c578063c59d48471461034f578063ed88c68e1461038a578063f4374aea14610392576101b1565b806357075257146102d557806369bc2f1e146102f4578063853828b614610308576101b1565b8062b37044146101f357806312065fe01461021a57806317294a111461022c5780632e1a7d4d1461026a5780634abfa163146102895780634b319713146102c0576101b1565b366101b15734156101af57335f90815260026020526040812080543492906100ed9084906108d6565b9091555050335f9081526004602052604090205460ff1661016457335f818152600460205260408120805460ff191660019081179091556003805491820181559091527fc2575a0e9e593c00f959f8c92f12db2869c3395a3b0502d05e2516446f71f85b0180546001600160a01b03191690911790555b345f5f82825461017491906108d6565b909155505060405134815233907fb3ae2eeb5e8f36822864449cd2b46d1b0575f4c781c292be75f6f75ac811fb4d9060200160405180910390a25b005b60405162461bcd60e51b8152602060048201526012602482015271119d5b98dd1a5bdb881b9bdd08199bdd5b9960721b60448201526064015b60405180910390fd5b3480156101fe575f5ffd5b506102075f5481565b6040519081526020015b60405180910390f35b348015610225575f5ffd5b5047610207565b348015610237575f5ffd5b5061025a6102463660046108ef565b60046020525f908152604090205460ff1681565b6040519015158152602001610211565b348015610275575f5ffd5b506101af61028436600461091c565b6103bd565b348015610294575f5ffd5b506102a86102a336600461091c565b61057a565b6040516001600160a01b039091168152602001610211565b3480156102cb575f5ffd5b5061020760015481565b3480156102e0575f5ffd5b506102a86102ef36600461091c565b6105a2565b3480156102ff575f5ffd5b50600354610207565b348015610313575f5ffd5b506101af610618565b348015610327575f5ffd5b506102a87f000000000000000000000000000000000000000000000000000000000000000081565b34801561035a575f5ffd5b5061036a5f546001546003544793565b604080519485526020850193909352918301526060820152608001610211565b6101af6107bc565b34801561039d575f5ffd5b506102076103ac3660046108ef565b60026020525f908152604090205481565b336001600160a01b037f00000000000000000000000000000000000000000000000000000000000000001614610406576040516330cd747160e01b815260040160405180910390fd5b600260055403610429576040516345f5ce8b60e11b815260040160405180910390fd5b600260055580158061043a57504781115b1561045857604051639abc749160e01b815260040160405180910390fd5b8060015f82825461046991906108d6565b909155505f905061047a8247610933565b90505f7f00000000000000000000000000000000000000000000000000000000000000006001600160a01b0316836040515f6040518083038185875af1925050503d805f81146104e5576040519150601f19603f3d011682016040523d82523d5f602084013e6104ea565b606091505b505090508061050c576040516312171d8360e31b815260040160405180910390fd5b60408051848152602081018490526001600160a01b037f000000000000000000000000000000000000000000000000000000000000000016917ffbc3a599b784fe88772fc5abcc07223f64ca0b13acc341f4fb1e46bef0510eb4910160405180910390a25050600160055550565b60038181548110610589575f80fd5b5f918252602090912001546001600160a01b0316905081565b6003545f9082106105eb5760405162461bcd60e51b8152602060048201526013602482015272496e646578206f7574206f6620626f756e647360681b60448201526064016101ea565b600382815481106105fe576105fe610946565b5f918252602090912001546001600160a01b031692915050565b336001600160a01b037f00000000000000000000000000000000000000000000000000000000000000001614610661576040516330cd747160e01b815260040160405180910390fd5b600260055403610684576040516345f5ce8b60e11b815260040160405180910390fd5b6002600555475f8190036106ab57604051639abc749160e01b815260040160405180910390fd5b8060015f8282546106bc91906108d6565b90915550506040515f906001600160a01b037f0000000000000000000000000000000000000000000000000000000000000000169083908381818185875af1925050503d805f8114610729576040519150601f19603f3d011682016040523d82523d5f602084013e61072e565b606091505b5050905080610750576040516312171d8360e31b815260040160405180910390fd5b604080518381525f60208201526001600160a01b037f000000000000000000000000000000000000000000000000000000000000000016917ffbc3a599b784fe88772fc5abcc07223f64ca0b13acc341f4fb1e46bef0510eb4910160405180910390a250506001600555565b345f036107dc57604051636370392160e11b815260040160405180910390fd5b335f90815260026020526040812080543492906107fa9084906108d6565b9091555050335f9081526004602052604090205460ff1661087157335f818152600460205260408120805460ff191660019081179091556003805491820181559091527fc2575a0e9e593c00f959f8c92f12db2869c3395a3b0502d05e2516446f71f85b0180546001600160a01b03191690911790555b345f5f82825461088191906108d6565b90915550506040805134815247602082015233917f4b0304ab2f313234b1cea012339c8f8c3bf2c8bb357d81a579cfdb35d2e3d030910160405180910390a2565b634e487b7160e01b5f52601160045260245ffd5b808201808211156108e9576108e96108c2565b92915050565b5f602082840312156108ff575f5ffd5b81356001600160a01b0381168114610915575f5ffd5b9392505050565b5f6020828403121561092c575f5ffd5b5035919050565b818103818111156108e9576108e96108c2565b634e487b7160e01b5f52603260045260245ffdfea264697066735822122071fd3b5a2d7df0ebd46b5e6a85473f87474da9392c5f0692329b458f87d795d764736f6c634300081c0033",
  "linkReferences": {},
  "deployedLinkReferences": {},
  "immutableReferences": {
    "5": [
      {
        "length": 32,
        "start": 813
      },
      {
        "length": 32,
        "start": 968
      },
      {
        "length": 32,
        "start": 1151
      },
      {
        "length": 32,
        "start": 1316
      },
      {
        "length": 32,
        "start": 1571
      },
      {
        "length": 32,
        "start": 1744
      },
      {
        "length": 32,
        "start": 1895
      }
    ]
  },
  "inputSourceName": "project/contracts/Donation.sol",
  "buildInfoId": "solc-0_8_28-d76cbbe33e969059e20d970b0ad2e98088936c86"
}